{
  "_format": "hh-sol-artifact-1",
  "contractName": "PropertyRegistry",
  "sourceName": "contracts/registry.sol",
  "abi": [
    {
      "anonymous": false,
      "inputs": [
        {
          "indexed": false,
          "internalType": "uint256",
          "name": "id",
          "type": "uint256"
        },
        {
          "indexed": false,
          "internalType": "address",
          "name": "owner",
          "type": "address"
        },
        {
          "indexed": false,
          "internalType": "string",
          "name": "description",
          "type": "string"
        }
      ],
      "name": "PropertyRegistered",
      "type": "event"
    },
    {
      "anonymous": false,
      "inputs": [
        {
          "indexed": false,
          "internalType": "uint256",
          "name": "id",
          "type": "uint256"
        },
        {
          "indexed": false,
          "internalType": "address",
          "name": "from",
          "type": "address"
        },
        {
          "indexed": false,
          "internalType": "address",
          "name": "to",
          "type": "address"
        }
      ],
      "name": "PropertyTransferred",
      "type": "event"
    },
    {
      "inputs": [
        {
          "internalType": "uint256",
          "name": "_propertyId",
          "type": "uint256"
        }
      ],
      "name": "getProperty",
      "outputs": [
        {
          "components": [
            {
              "internalType": "uint256",
              "name": "id",
              "type": "uint256"
            },
            {
              "internalType": "string",
              "name": "description",
              "type": "string"
            },
            {
              "internalType": "address",
              "name": "owner",
              "type": "address"
            }
          ],
          "internalType": "struct PropertyRegistry.Property",
          "name": "",
          "type": "tuple"
        }
      ],
      "stateMutability": "view",
      "type": "function"
    },
    {
      "inputs": [],
      "name": "nextPropertyId",
      "outputs": [
        {
          "internalType": "uint256",
          "name": "",
          "type": "uint256"
        }
      ],
      "stateMutability": "view",
      "type": "function"
    },
    {
      "inputs": [
        {
          "internalType": "uint256",
          "name": "",
          "type": "uint256"
        }
      ],
      "name": "properties",
      "outputs": [
        {
          "internalType": "uint256",
          "name": "id",
          "type": "uint256"
        },
        {
          "internalType": "string",
          "name": "description",
          "type": "string"
        },
        {
          "internalType": "address",
          "name": "owner",
          "type": "address"
        }
      ],
      "stateMutability": "view",
      "type": "function"
    },
    {
      "inputs": [
        {
          "internalType": "string",
          "name": "_description",
          "type": "string"
        }
      ],
      "name": "registerProperty",
      "outputs": [],
      "stateMutability": "nonpayable",
      "type": "function"
    },
    {
      "inputs": [
        {
          "internalType": "uint256",
          "name": "_propertyId",
          "type": "uint256"
        },
        {
          "internalType": "address",
          "name": "_newOwner",
          "type": "address"
        }
      ],
      "name": "transferProperty",
      "outputs": [],
      "stateMutability": "nonpayable",
      "type": "function"
    }
  ],
  "bytecode": "0x608060405234801561001057600080fd5b50610c91806100206000396000f3fe608060405234801561001057600080fd5b50600436106100575760003560e01c806332665ffb1461005c57806339500f341461008c578063d2675d59146100aa578063f7b10808146100c6578063ff356237146100f8575b600080fd5b610076600480360381019061007191906106fd565b610114565b60405161008391906108a3565b60405180910390f35b610094610232565b6040516100a191906108c5565b60405180910390f35b6100c460048036038101906100bf91906106bc565b610238565b005b6100e060048036038101906100db91906106fd565b610348565b6040516100ef93929190610955565b60405180910390f35b610112600480360381019061010d9190610726565b61041a565b005b61011c610550565b6000808381526020019081526020016000206040518060600160405290816000820154815260200160018201805461015390610a94565b80601f016020809104026020016040519081016040528092919081815260200182805461017f90610a94565b80156101cc5780601f106101a1576101008083540402835291602001916101cc565b820191906000526020600020905b8154815290600101906020018083116101af57829003601f168201915b505050505081526020016002820160009054906101000a900473ffffffffffffffffffffffffffffffffffffffff1673ffffffffffffffffffffffffffffffffffffffff1673ffffffffffffffffffffffffffffffffffffffff16815250509050919050565b60015481565b604051806060016040528060015481526020018281526020013373ffffffffffffffffffffffffffffffffffffffff1681525060008060015481526020019081526020016000206000820151816000015560208201518160010190805190602001906102a5929190610587565b5060408201518160020160006101000a81548173ffffffffffffffffffffffffffffffffffffffff021916908373ffffffffffffffffffffffffffffffffffffffff1602179055509050507f0f5ddfd7ee384d3acc46aab5b9807217e71933f0c3db67ffbf556452423695f9600154338360405161032593929190610917565b60405180910390a16001600081548092919061034090610af7565b919050555050565b600060205280600052604060002060009150905080600001549080600101805461037190610a94565b80601f016020809104026020016040519081016040528092919081815260200182805461039d90610a94565b80156103ea5780601f106103bf576101008083540402835291602001916103ea565b820191906000526020600020905b8154815290600101906020018083116103cd57829003601f168201915b5050505050908060020160009054906101000a900473ffffffffffffffffffffffffffffffffffffffff16905083565b3373ffffffffffffffffffffffffffffffffffffffff1660008084815260200190815260200160002060020160009054906101000a900473ffffffffffffffffffffffffffffffffffffffff1673ffffffffffffffffffffffffffffffffffffffff16146104bd576040517f08c379a00000000000000000000000000000000000000000000000000000000081526004016104b490610883565b60405180910390fd5b8060008084815260200190815260200160002060020160006101000a81548173ffffffffffffffffffffffffffffffffffffffff021916908373ffffffffffffffffffffffffffffffffffffffff1602179055507f2231fc8bc2c20e26d85d66dc7f13a6b6d535c86d2a4d678bb2de61f5b7136083823383604051610544939291906108e0565b60405180910390a15050565b60405180606001604052806000815260200160608152602001600073ffffffffffffffffffffffffffffffffffffffff1681525090565b82805461059390610a94565b90600052602060002090601f0160209004810192826105b557600085556105fc565b82601f106105ce57805160ff19168380011785556105fc565b828001600101855582156105fc579182015b828111156105fb5782518255916020019190600101906105e0565b5b509050610609919061060d565b5090565b5b8082111561062657600081600090555060010161060e565b5090565b600061063d610638846109b8565b610993565b90508281526020810184848401111561065557600080fd5b610660848285610a52565b509392505050565b60008135905061067781610c2d565b92915050565b600082601f83011261068e57600080fd5b813561069e84826020860161062a565b91505092915050565b6000813590506106b681610c44565b92915050565b6000602082840312156106ce57600080fd5b600082013567ffffffffffffffff8111156106e857600080fd5b6106f48482850161067d565b91505092915050565b60006020828403121561070f57600080fd5b600061071d848285016106a7565b91505092915050565b6000806040838503121561073957600080fd5b6000610747858286016106a7565b925050602061075885828601610668565b9150509250929050565b61076b81610a16565b82525050565b61077a81610a16565b82525050565b600061078b826109e9565b61079581856109f4565b93506107a5818560208601610a61565b6107ae81610bcd565b840191505092915050565b60006107c4826109e9565b6107ce8185610a05565b93506107de818560208601610a61565b6107e781610bcd565b840191505092915050565b60006107ff602883610a05565b915061080a82610bde565b604082019050919050565b600060608301600083015161082d6000860182610865565b50602083015184820360208601526108458282610780565b915050604083015161085a6040860182610762565b508091505092915050565b61086e81610a48565b82525050565b61087d81610a48565b82525050565b6000602082019050818103600083015261089c816107f2565b9050919050565b600060208201905081810360008301526108bd8184610815565b905092915050565b60006020820190506108da6000830184610874565b92915050565b60006060820190506108f56000830186610874565b6109026020830185610771565b61090f6040830184610771565b949350505050565b600060608201905061092c6000830186610874565b6109396020830185610771565b818103604083015261094b81846107b9565b9050949350505050565b600060608201905061096a6000830186610874565b818103602083015261097c81856107b9565b905061098b6040830184610771565b949350505050565b600061099d6109ae565b90506109a98282610ac6565b919050565b6000604051905090565b600067ffffffffffffffff8211156109d3576109d2610b9e565b5b6109dc82610bcd565b9050602081019050919050565b600081519050919050565b600082825260208201905092915050565b600082825260208201905092915050565b6000610a2182610a28565b9050919050565b600073ffffffffffffffffffffffffffffffffffffffff82169050919050565b6000819050919050565b82818337600083830152505050565b60005b83811015610a7f578082015181840152602081019050610a64565b83811115610a8e576000848401525b50505050565b60006002820490506001821680610aac57607f821691505b60208210811415610ac057610abf610b6f565b5b50919050565b610acf82610bcd565b810181811067ffffffffffffffff82111715610aee57610aed610b9e565b5b80604052505050565b6000610b0282610a48565b91507fffffffffffffffffffffffffffffffffffffffffffffffffffffffffffffffff821415610b3557610b34610b40565b5b600182019050919050565b7f4e487b7100000000000000000000000000000000000000000000000000000000600052601160045260246000fd5b7f4e487b7100000000000000000000000000000000000000000000000000000000600052602260045260246000fd5b7f4e487b7100000000000000000000000000000000000000000000000000000000600052604160045260246000fd5b6000601f19601f8301169050919050565b7f4f6e6c7920746865206f776e65722063616e207472616e73666572207468652060008201527f70726f7065727479000000000000000000000000000000000000000000000000602082015250565b610c3681610a16565b8114610c4157600080fd5b50565b610c4d81610a48565b8114610c5857600080fd5b5056fea26469706673582212203a6e3b61d00fff40f0b82ab79d0d4068e3931f8e0fe3f85b889c383dc674f5f764736f6c63430008040033",
  "linkReferences": {},
  "deployedLinkReferences": {}
}